:020000040800F2
:1000000008090020E1010008812100087921000889
:100010007D21000841070008992A0008000000001F
:100020000000000000000000000000006D22000839
:10003000450700080000000041220008E5220008F2
:10004000FB010008FB010008FB010008FB010008A0
:10005000FB010008FB010008FB010008FB01000890
:10006000FB010008FB010008FB010008FB01000880
:10007000FB010008FB010008FB010008FB01000870
:10008000FB010008FB010008FB010008FB01000860
:10009000FB010008FB010008FB010008FB01000850
:1000A000FB010008FB010008FB010008FB01000840
:1000B000FB010008FB010008FB010008FB01000830
:1000C000FB010008FB010008FB010008FB01000820
:1000D000FB010008752A0008FB010008FB0100086D
:1000E000FB010008FB010008FB010008FB01000800
:1000F000FB010008FB010008FB010008FB010008F0
:10010000FB010008FB010008FB010008FB010008DF
:10011000FB010008C9250008FB010008FB010008DD
:10012000FB010008FB010008FB010008FB010008BF
:1001300000F002F800F045F80AA090E8000C8244B4
:100140008344AAF10107DA4501D100F03AF8AFF291
:10015000090EBAE80F0013F0010F18BFFB1A43F0A5
:100160000103184794CD0000B4CD0000103A24BF1D
:1001700078C878C1FAD8520724BF30C830C144BF0C
:1001800004680C607047000000230024002500264E
:10019000103A28BF78C1FBD8520728BF30C148BFEA
:1001A0000B607047642900F0AD80782900F0E6808C
:1001B000732900F04282002070471FB51FBD10B5A3
:1001C00010BD00F05DFA1146FFF7F7FF08F08AFC5A
:1001D00000F07BFA03B4FFF7F2FF03BC02F0B5FFB7
:1001E0000948804709480047FEE7FEE7FEE7FEE7CB
:1001F000FEE7FEE7FEE7FEE7FEE7FEE70448054907
:10020000054A064B70470000ED2200083101000846
:100210000803002008090020080500200805002028
:10022000704700000FB4044910B503AA029800F00B
:1002300009FA10BC5DF814FB080000200FB41CB5CF
:10024000074B06AA7B4469460090059800F0CBF95D
:100250000020694600F0DAF91CBC5DF814FB0000D0
:10026000C503000070B5044685690068C10601D564
:10027000302600E02026C00707D070BDD4E9012158
:1002800030469047206A401C20626D1EF6D570BD36
:1002900070B5044685690078C00707D170BDD4E900
:1002A000012120209047206A401C20626D1EF6D557
:1002B00070BD70B50C460546012A05D02878800629
:1002C00000D5EA69002302E0012305E05B1C9342AC
:1002D00002D2E05C0028F9D1A869E618C01AA8612A
:1002E000286A184428622846FFF7BCFF04E0D5E9D5
:1002F000012114F8010B9047B442F8D32846FFF7C8
:10030000C7FF70BD2DE9F04106460024106875292D
:10031000314616A510D0AFF30080002802DA404223
:1003200013A507E031688A0701D512A502E0490745
:1003300004D511A5012401E0AFF3008000210A22B9
:1003400006F1240709E0B0FBF2FCB0FBF2F302FB7C
:100350001C00303078541846491C0028F3D123463D
:100360002A463046BDE8F04100F0DFB8000000004A
:100370002D0000002B0000002000000070B5044696
:100380000D4621461068AFF300802188090502D58B
:100390000F4A7A4402E00E4A7A440E32002104F1F8
:1003A000240305E000F00F060009965D5E54491C29
:1003B0000028F7D120780023000704D5702D02D043
:1003C00009B1022311322046BDE8704000F0ADB8FB
:1003D00008CA00002DE9F05F894604464FF0000A84
:1003E000DFF824B1FB44C0F820A02046E16888472C
:1003F00000287DD0252806D0D4E901219047206A25
:10040000401C2062F1E700255F462046E1688847EE
:100410002028064607DB312E05D2B81910F8200C2B
:1004200008B10543F1E7A80701D525F00405C4F894
:100430001CA00027C4F818A02A2E09D0304602F0CC
:100440007DFE38B304EB8708303EC8F8186019E029
:1004500059F8041B204604EB87029161E168884744
:10046000012F064618D1E069002820DA25F0200582
:100470001DE0D8F8180000EB800006EB4000303893
:10048000C8F818002046E1688847064602F056FE84
:100490000028EED1012F0AD02E2E08D12046E16887
:1004A00088477F1C0646022F45F02005C4DBA06963
:1004B000002803DA404245F00105A061E80701D0B9
:1004C00025F01005A6B1A6F14100192802D8203662
:1004D00045F400654A463146204625604D46FFF703
:1004E00061FE60B1012807D0ED1D25F0070000E096
:1004F00007E000F1080978E705F1040975E73046DF
:100500007AE7206ABDE8F09FDEC9000070477047B7
:100510007047704710B500F0A7F8006810BD10B51F
:10052000044600F0A1F8046010BD2DE9F0470D4627
:1005300099469246044600F124080168880604D5CD
:10054000E06921F01001216000E00120A84201DDF6
:10055000471B00E00027A1697A1902EB0900081A7D
:10056000A0612078C00602D42046FFF77BFE00265B
:1005700008E0D4E901211AF806009047206A401CDF
:10058000761C20624E45F4DB2078C0060AD5204652
:10059000FFF768FE06E0D4E9012130209047206A89
:1005A000401C2062381EA7F10107F4DC07E0D4E903
:1005B000012118F805009047206A401C2062281E7F
:1005C000A5F10105F3DC2046FFF762FE2078000666
:1005D00002D50220BDE8F0870120FBE701694A1C33
:1005E00002610878704700B58FB0CDE90131002174
:1005F000059105497944CDE9031011466846FFF796
:10060000E9FE0FB000BD0000E5FFFFFF0A6802F839
:10061000010B0A60704710B5436913B1AFF3008056
:1006200001E0FFF746FE012010BD127800F1240121
:100630000A7000224A700122EDE711684FF0FF3284
:10064000E9E70000074B70B50D467B44FFF7CBFF91
:100650000446284600F00CF810B14FF0FF3070BD92
:10066000204670BD7330000000487047A80200208B
:10067000007B00F08000704700487047A80200200F
:100680007546FFF7F9FFAE4605006946534620F070
:100690000700854618B020B5FFF7B0FDBDE8204043
:1006A0004FF000064FF000074FF000084FF0000B2E
:1006B00021F00701AC46ACE8C009ACE8C009ACE8E1
:1006C000C009ACE8C0098D4670470446AFF300800E
:1006D0002046FFF77FFD000038B569464FF4E13052
:1006E00002F044FD044674B10BA0FFF79BFD09E046
:1006F00000BF4FF48071104800F090FC00BFC8208C
:1007000002F072FFF4E7BDF8000002F0AFFFBDF8A1
:1007100000000A49088038BD313131313141544B34
:100720002D4D5335334C304D20696E697420666110
:10073000696C6564210D0A00000801400400002076
:1007400000BFFEE7704700002DE9F14F98B0189800
:1007500008F0CEFD8246A94AA94B08F0DDFD064609
:100760000022A84B08F0D8FD804608F0ADFA0446F8
:10077000A54AA64B08F0D0FDCDE91201189808F063
:10078000B7FD80469D4A9E4B08F0C6FD06460022F6
:100790009C4B08F0C1FD824602F0C4FE04469C4A10
:1007A0009C4B08F0B9FDCDE90E01189808F0A0FDAA
:1007B0008246924A924B08F0AFFD064600224FF067
:1007C000804308F0A9FD044608F07EFA8046924A6C
:1007D000924B08F0A1FDCDE90A01189808F088FDB8
:1007E0008046864A864B08F097FD064600224FF069
:1007F000804308F091FD044602F094FE8246884A48
:10080000884B08F089FDCDE90601189808F070FDC5
:1008100080467A4A7A4B08F07FFD064608F054FA83
:100820000446814A814B08F077FDCDE90201189812
:1008300008F05EFD8046714A714B08F06DFD06467A
:1008400002F070FE04467A4A7A4B08F065FD824653
:10085000794A7A4B08F05EFECDE90001DDE902231A
:1008600008F064FECDE90401DDE9062308F05EFE30
:10087000CDE90801DDE90A2308F0BEFACDE90C0153
:10088000DDE90E2308F0B8FACDE91001DDE9122305
:1008900008F0B2FACDE9140108F0E6FC80B2169037
:1008A000189808F025FD0646654A664B08F034FDA9
:1008B00004460022534B08F02FFD804608F004FA4E
:1008C0008246614A614B08F027FDCDE91201189874
:1008D00008F00EFD80465A4A5A4B08F01DFD0646A8
:1008E0000022484B08F018FD044602F01BFE824629
:1008F000574A584B08F010FDCDE90E01189808F042
:10090000F7FC82464E4A4F4B08F006FD0646002291
:100910004FF0804308F000FD044608F0D5F980460A
:100920004D4A4E4B08F0F8FCCDE90A01189808F042
:10093000DFFC0646424A434B08F0EEFC80460022AC
:100940004FF0804308F0E8FC044602F0EBFD8246DD
:10095000434A444B08F0E0FCCDE90601189808F042
:10096000C7FC8046364A374B08F0D6FC064608F0EE
:10097000ABF904463C4A3D4B08F0CEFCCDE9020100
:10098000189808F0B5FC80462D4A2E4B08F0C4FCA0
:10099000064602F0C7FD0446354A364B08F0BCFC5B
:1009A0008246354A354B08F0B5FDCDE90001DDE959
:1009B000022308F0BBFDCDE90401DDE9062308F0C0
:1009C000B5FDCDE90801DDE90A2308F015FACDE906
:1009D0000C01DDE90E2308F00FFACDE91001DDE985
:1009E000122308F009FACDE9140108F03DFC80B2A9
:1009F0001690169819B0BDE8F08F000079E92631FD
:100A000008AC7C3F00000840BEC1172653153F408C
:100A1000705F07CE19A14640287E8CB96BD767401E
:100A2000D122DBF97EEA6440D9CEF753E3197C404A
:100A3000355EBA490CFA76402497FF907E557F4088
:100A40009CC420B07268813FAED85F764FDE3840DC
:100A50001E166A4DF34E1F40F38E537424F74D401B
:100A60004D840D4FAF6C56405B423EE8D97E6740E7
:100A70001CEBE2361A3268405DFE43FAED0072402C
:100A800070B5054627480068401C2649086008469E
:100A90000068052801D3002008602846FFF754FEAF
:100AA000054621481F49096820F8115000201F49B8
:100AB00008801F490860002424E01B481949096880
:100AC00030F81100184931F81410401A0A2818DAC1
:100AD00015481449096830F81100134931F8141009
:100AE000401A10F10A0F0CDD0F4830F814000F49BE
:100AF000098808440D4908800D480068401C0C49CD
:100B00000860641C052CD8D30948006838B1074830
:100B1000008807490968B0FBF1F6304670BD2846E9
:100B2000FCE700002C0000203A02002034000020E6
:100B30003000002070B50446002594F821000228FA
:100B400003D00420A0630125C1E02068006820F0E4
:100B50000E00216808602068006820F0010021680C
:100B600008605C492068884252D95A49783920681F
:100B7000884201D1012047E0564964392068884203
:100B800001D1102040E0534950392068884201D1FA
:100B9000801539E04F493C392068884201D18014E2
:100BA00032E04C4928392068884202D14FF4803025
:100BB0002AE0484914392068884202D14FF4801055
:100BC00022E044492068884201D140041CE04249A7
:100BD0002068884201D1012016E03F491431206885
:100BE000884201D110200FE03B492831206888421B
:100BF00001D1801508E038493C312068884201D194
:100C0000801401E04FF480303349091F086051E03F
:100C1000304978392068884201D1012047E02D49C8
:100C200064392068884201D1102040E029495039B8
:100C30002068884201D1801539E026493C39206876
:100C4000884201D1801432E0224928392068884244
:100C500002D14FF480302AE01E49143920688842BE
:100C600002D14FF4801022E01A492068884201D155
:100C700040041CE018492068884201D1012016E098
:100C8000154914312068884201D110200FE0124923
:100C900028312068884201D1801508E00E493C3196
:100CA0002068884201D1801401E04FF48030094966
:100CB00080394860012084F8210000BF002084F8BA
:100CC000200000BF606B10B12046616B884728464A
:100CD00070BD000080000240080402402DE9F84782
:100CE000024600239C467BE14FF0010808FA03F41A
:100CF000D1F8008008EA0400A0427DD1DFF8F4A218
:100D0000D1F80480A8EB0A09D0453AD014DCB8F138
:100D1000030F50D009DCB8F1000F31D0B8F1010F4A
:100D20001CD0B8F1020F49D120E0B8F1110F18D052
:100D3000B8F1120F42D11EE0B9F5881F25D006DCAC
:100D4000B9F5803F20D0B9F5801F37D11AE0B9F549
:100D5000001F18D0B9F5041F30D117E0D1F80CC02E
:100D60002DE0D1F80C8008F1040C28E0D1F80C80BB
:100D700008F1080C23E0D1F80C8008F10C0C1EE0FF
:100D800000BF00BF00BF00BF00BF00BFD1F8088098
:100D9000B8F1000F02D14FF0040C0BE0D1F808803D
:100DA000B8F1010F03D14FF0080C146102E04FF0CD
:100DB000080C546103E04FF0000C00E000BF00BFDE
:100DC000FF2801D8904601E002F104084646FF28BA
:100DD00002D84FEA830803E0A3F108084FEA880825
:100DE0004746D6F800804FF00F0909FA07F928EABC
:100DF00009080CFA07F900E07AE048EA0908C6F8A1
:100E00000080D1F8048008F08058B8F1805F6FD17D
:100E100000BFDFF8E481D8F8188048F00108DFF857
:100E2000D891C9F81880C846D8F8188008F0010889
:100E3000CDF8008000BF00BF4FEAB9384FEA9309F0
:100E400058F829504FEA83784FEA18794FF00F0885
:100E500008FA09F825EA0805DFF8A081424502D121
:100E60004FF0000824E0DFF89881424502D14FF0AE
:100E700001081DE0DFF88C81424502D14FF00208E5
:100E800016E0DFF88481424502D14FF003080FE0FD
:100E9000DFF87881424502D14FF0040808E0DFF81E
:100EA0007081424502D14FF0050801E04FF006087D
:100EB0004FEA83794FEA197908FA09F848EA0505F3
:100EC000DFF850814FEA930948F82950D1F804809F
:100ED00008F48038B8F5803F0BD1DFF83C81D8F8B2
:100EE000008048EA0008DFF83091C9F800800AE085
:100EF00075E0DFF82481D8F8008028EA0008DFF8E0
:100F00001891C9F80080D1F8048008F40038B8F5C9
:100F1000003F0ED1DFF8008108F10408D8F8008006
:100F200048EA0008DFF8F09009F10409C9F80080E8
:100F30000DE0DFF8E48008F10408D8F8008028EA22
:100F40000008DFF8D49009F10409C9F80080D1F84D
:100F5000048008F48018B8F5801F0ED1DFF8B8803F
:100F600008F10808D8F8008048EA0008DFF8A890DF
:100F700009F10809C9F800800DE0DFF89C8008F14C
:100F80000808D8F8008028EA0008DFF88C9009F1FA
:100F90000809C9F80080D1F8048008F40018B8F5F1
:100FA000001F0ED1DFF8708008F10C08D8F800801F
:100FB00048EA0008DFF8609009F10C09C9F80080E0
:100FC0000DE0DFF8548008F10C08D8F8008028EA1A
:100FD0000008DFF8449009F10C09C9F800805B1C97
:100FE000D1F8008028FA03F8B8F1000F7FF47CAE46
:100FF000BDE8F88700001110001002400008014011
:10100000000C014000100140001401400018014094
:10101000001C0140080001400004014010B5C268F6
:1010200021EA020302EA010443EA0443036110BD1A
:101030000AB1016101E00B040361704701480068D7
:101040007047000010000020034800680349097839
:101050000844014908607047100000201800002073
:1010600010B50848006840F01000064908600520E7
:1010700000F080F80F2000F007F800F02BF80020B7
:1010800010BD00000020024070B504460E480078F4
:101090004FF47A71B1FBF0F00C490968B1FBF0F53F
:1010A000284600F0F7FB08B1012070BD102C07D2D4
:1010B00000222146501E00F01EF80548046001E0A1
:1010C0000120F2E70020F0E71800002000000020D7
:1010D00014000020704701460846002809DB00F094
:1010E0001F0301229A4043099B0003F1E023C3F848
:1010F000002100BF70472DE9F05F80460D4616467F
:10110000002701F0DFFC074639462A46334601F046
:101110000700C0F1070ABAF1040F02D94FF0040A20
:1011200001E0C0F1070AD14600F1040ABAF1070F45
:1011300002D24FF0000A01E0A0F1030AD4464FF0BA
:10114000010A0AFA09FAAAF1010A0AEA020A0AFAE3
:101150000CFA4FF0010B0BFA0CFBABF1010B0BEA95
:10116000030B4AEA0B042146404601F0B3FCBDE8FC
:10117000F09F000000BF00F00702064B19684FF611
:10118000FF031940044B0B4343EA0221014B196052
:1011900000BF70470CED00E00000FA0570B5044692
:1011A0000D460CB9012070BD5A48006800F00700D8
:1011B000A8420ED25748006820F00700284355493E
:1011C00008600846006800F00700A84201D001202E
:1011D000E9E7207800F0020002281DD1207800F015
:1011E0000400042805D14C48406840F4E0604A49B6
:1011F0004860207800F00800082805D1464840687B
:1012000040F46050444948604348406820F0F00092
:10121000A168084340494860207800F0010078B395
:101220006068012806D13C48006800F4003090B99D
:101230000120B8E76068022806D13748006800F04E
:10124000007040B90120AEE73348006800F00200AA
:1012500008B90120A7E73048406820F00300616822
:1012600008432D494860FFF7E9FE064609E0FFF70D
:10127000E5FE801B41F28831884202D9032092E7C3
:1012800007E02548406800F00C006168B0EB810F72
:10129000EDD12048006800F00700A8420ED91D4893
:1012A000006820F0070028431A49086008460068D3
:1012B00000F00700A84201D0012074E7207800F078
:1012C0000400042807D11448406820F4E060E16875
:1012D000084311494860207800F00800082808D128
:1012E0000D48406820F46050216940EAC1000A4975
:1012F000486000F03FF808494968C1F30311074A04
:10130000515CC8400649086006480068FFF7BCFE0B
:10131000002048E70020024000100240069E00081E
:101320000000002014000020014800687047000001
:101330000000002000B5FFF7F7FF04494968C1F33A
:101340000221034A515CC84000BD00000010024069
:10135000169E000800B5FFF7E7FF04494968C1F38E
:10136000C221034A515CC84000BD00000010024089
:10137000169E0008F0B585B00FF26C0C9CE8E010EA
:1013800001A8A0E8E0101CA52D680095002100220E
:10139000002300240020194D696801F00C05F5B107
:1013A000042D02D0082D19D101E0154819E001AD36
:1013B000C1F38346AC5D01F4803555B10F4D6D68C6
:1013C000C5F340451DF805200D4D6543B5FBF2F30F
:1013D00002E00C4D04FB05F3184602E000BF08488C
:1013E00000BF00BF05B0F0BD0203040506070809F1
:1013F0000A0B0C0D0E0F101001020000001002402D
:1014000000127A0000093D00F8B504460CB901202D
:10141000F8BD207800F00100002878D0F848406836
:1014200000F00C0004280CD0F548406800F00C00D7
:10143000082811D1F248406800F48030B0F5803FB0
:101440000AD1EF48006800F4003000285FD06068DF
:1014500000285CD10120DBE700BF6068B0F5803F69
:1014600006D1E748006840F48030E549086028E08C
:10147000606858B9E248006820F48030E0490860AC
:101480000846006820F4802008601AE06068B0F523
:10149000A02F0BD1DA48006840F48020D8490860BA
:1014A0000846006840F4803008600AE0D4480068CC
:1014B00020F48030D24908600846006820F480207B
:1014C000086000BF606888B1FFF7B8FD054606E018
:1014D000FFF7B4FD401B642801D9032098E7C848F2
:1014E000006800F400300028F2D010E0FFF7A6FDFD
:1014F000054606E0FFF7A2FD401B642801D9032042
:1015000086E7BF48006800F400300028F2D1207858
:1015100000F00200022857D1B948406800F00C00E2
:1015200050B1B748406800F00C00082818D1B44802
:10153000406800F4803098B9B148006800F00200BB
:1015400020B12069012801D0012061E7AC48006882
:1015500020F0F800616940EAC100A949086033E061
:101560002069E8B10120A7490860FFF767FD05463B
:1015700006E0FFF763FD401B022801D9032047E77F
:101580009F48006800F002000028F2D09C480068E4
:1015900020F0F800616940EAC1009949086013E051
:1015A000002098490860FFF749FD054606E0FFF76F
:1015B00045FD401B022801D9032029E79048006817
:1015C00000F002000028F2D1207800F0080008287E
:1015D0002DD1A069B8B101208B490860FFF72EFD1D
:1015E000054606E0FFF72AFD401B022801D903202B
:1015F0000EE78348406A00F002000028F2D0012084
:1016000000F020FE13E000207F490860FFF716FD80
:10161000054606E0FFF712FD401B022801D9032012
:10162000F6E67748406A00F002000028F2D1207800
:1016300000F00400042873D100277148C06900F04D
:10164000805070B900BF6E48C06940F080506C494E
:10165000C8610846C06900F08050009000BF00BF1C
:1016600001276A48006800F48070B0B967480068D4
:1016700040F4807065490860FFF7E0FC054606E02D
:10168000FFF7DCFC401B642801D90320C0E65F485B
:10169000006800F480700028F2D000BFE0680128E4
:1016A00006D15748006A40F001005549086227E01A
:1016B000E06858B95248006A20F0010050490862B9
:1016C0000846006A20F00400086219E0E068052876
:1016D0000BD14B48006A40F00400494908620846B3
:1016E000006A40F0010008620AE04548006A20F004
:1016F0000100434908620846006A20F004000862BD
:1017000000BFE068A0B1FFF799FC054609E0FFF7CC
:1017100095FC401B41F28831884202D9032077E6CC
:1017200022E03748006A00F002000028EFD012E003
:10173000FFF784FC054608E0FFF780FC401B41F200
:101740008831884201D9032062E62D48006A00F002
:1017500002000028F0D1012F05D12948C06920F0EE
:1017600080502749C86100BFE069C8B32448406879
:1017700000F00C00082860D0E069022848D1002061
:1017800020490866FFF75AFC054606E0FFF756FCBD
:10179000401B022801D903203AE61948006800F0EE
:1017A00000700028F2D1206AB0F5803F07D11448BC
:1017B000406820F40030A168084311494860D4E92A
:1017C000080108430E49496821F4741108430C4983
:1017D000486001200B490866FFF730FC054607E02A
:1017E0003DE0FFF72BFC401B022801D903200FE648
:1017F0000348006800F000700028F2D02FE00000DD
:10180000001002400000424280044242007000404A
:10181000002014490866FFF711FC054606E0FFF7B3
:101820000DFC401B022801D90320F1E50E48006899
:1018300000F000700028F2D111E0E069012800D129
:10184000E6E50948466806F48031206A814204D101
:1018500006F47011606A814201D00120D8E50020B1
:10186000D6E500000000424200100240042808D1E2
:101870004FF0E021096941F004014FF0E0221161CD
:1018800007E04FF0E021096921F004014FF0E02268
:101890001161704770B504462546681EB0F1807F1F
:1018A00001D301200FE0681E4FF0E02148610F21B5
:1018B0004FF0FF3001F00EF900204FF0E021886179
:1018C00007200861002070BD70B504460D4616461D
:1018D00000BF94F83C00012801D1022070BD012016
:1018E00084F83C0000BF36B1042E1BD0082E31D046
:1018F0000C2E5ED145E02946206800F083FD20686B
:10190000806940F00800216888612068806920F0C3
:10191000040021688861206880692969084321687A
:10192000886147E02946206800F0A4FD20688069AE
:1019300040F40060216888612068806920F480603C
:101940002168886120688069296940EA012021684E
:1019500088612FE02946206800F0CAFD2068C06930
:1019600040F008002168C8612068C06920F00400C8
:101970002168C8612068C069296908432168C86175
:1019800018E02946206800F0EFFD2068C06940F4A7
:1019900000602168C8612068C06920F48060216807
:1019A000C8612068C069296940EA01202168C861CE
:1019B00000E000BF00BF00BF002084F83C0000BF73
:1019C00000BF8BE710B504460CB9012010BD94F898
:1019D0003D0028B9002084F83C00204600F026F89D
:1019E000022084F83D00211D206800F0ABFC01209E
:1019F00084F8460000BF84F83E0001213F200155D5
:101A0000402001554120015500BF00BF012084F84E
:101A1000420043200155442001554520015500BF97
:101A2000012084F83D000020D0E7000010B586B00A
:101A3000044616492068884226D100BF14488069B0
:101A400040F40060124988610846806900F4006033
:101A5000019000BF00BF00BF0846806940F004004D
:101A600088610846806900F00400019000BF00BF53
:101A70008815029002200390012004900320059015
:101A800002A90448FFF72AF906B010BD002C014056
:101A9000001002400008014070B504460D4615B91B
:101AA00094F83E000BE0042D02D13F20005D06E0DB
:101AB000082D02D14020005D01E04120005D012899
:101AC00001D0012070BD1DB9022084F83E000EE057
:101AD000042D03D102213F20015508E0082D03D138
:101AE00002214020015502E002214120015501223E
:101AF0002946206800F074FC1F492068884203D002
:101B00001E492068884201D1012000E0002028B150
:101B10002068406C40F40040216848641649206801
:101B2000884213D01549206888420FD02068B0F150
:101B3000804F0BD012492068884207D01149206895
:101B4000884203D01049206888420CD12068806800
:101B500000F00706062E0CD02068006840F0010057
:101B60002168086005E02068006840F001002168F5
:101B700008600020A6E70000002C0140003401406E
:101B80000004004000080040000C004070470000C6
:101B90002DE9F0470446206805682068C66820687B
:101BA00047694FF00008C14605F00F08B8F1000F73
:101BB0000AD105F0200038B106F0200020B12046FF
:101BC00000F024FEBDE8F087B8F1000F71D007F0F7
:101BD000010018B906F4907000286AD005F00100E1
:101BE00030B106F4807018B1E06B40F00100E063A2
:101BF00005F0040030B107F0010018B1E06B40F0CF
:101C00000200E06305F0020030B107F0010018B1F6
:101C1000E06B40F00400E06305F0080048B106F016
:101C2000200010B907F0010018B1E06B40F0080087
:101C3000E063E06B68B305F0200028B106F02000F7
:101C400010B1204600F0E2FD20684069C0F3801921
:101C5000E06B00F0080010B9B9F1000F22D0204667
:101C600000F0B4FD2068406900F04000B0B1206889
:101C7000406920F0400021684861606B50B118480D
:101C8000616B4863606BFEF755FF10B1606B416B91
:101C900088470CE02046FFF779FF08E02046FFF771
:101CA00075FF04E02046FFF771FF0020E06389E73D
:101CB000FFE705F0800030B106F0800018B1204643
:101CC00000F072FE7EE705F0400030B106F0400003
:101CD00018B1204600F08AFD74E700BF72E70000EB
:101CE000B927000810B504460CB9012010BDA06941
:101CF00000B100E000BF94F8390028B9002084F852
:101D00003800204600F028F8242084F839002068A4
:101D1000C06820F400502168C860204600F0C6FD6D
:101D20002068006920F490402168086120684069BB
:101D300020F02A00216848612068C06840F4005003
:101D40002168C8600020E063202084F8390084F80E
:101D50003A000020CAE7000010B586B00446574993
:101D6000206888424BD100BF00BF5548806940F0D1
:101D70000400534988610846806900F0040001901E
:101D800000BF00BF00BF00BF00BF0846806940F031
:101D9000040088610846806900F00400019000BFDB
:101DA00000BF00BF00BF00BF0846806940F480400C
:101DB00088610846806900F48040019000BF00BF40
:101DC00000BF4815029002200390012004900320D8
:101DD000059002A93B48FEF781FF4FF48060029016
:101DE0000020039002A93748FEF778FF2520FFF76F
:101DF00072F9032211462520FFF77DF95CE0324994
:101E00002068884258D100BF00BF2D48806940F04B
:101E100010002B4988610846806900F0100001908D
:101E200000BF00BF00BF00BF00BF0846806940F090
:101E3000200088610846806900F02000019000BF02
:101E400000BF00BF00BF00BF0846C06940F480105B
:101E5000C8610846C06900F48010019000BF00BF4F
:101E600000BF8814029002200390002004900320F9
:101E7000059002A91548FEF731FF042002900020CA
:101E8000039004900320059002A91148FEF726FF55
:101E9000002211463520FFF72EF93520FFF71BF9F8
:101EA0002068C06840F020002168C8602068C068D1
:101EB00040F010002168C86006B010BD0038014035
:101EC0000010024000080140005000400010014096
:101ED000001401402DE9F84F04460E461746994676
:101EE0004FF0000A94F83A0020285DD106B117B9E6
:101EF0000120BDE8F88F00BF94F83800012801D117
:101F00000220F6E7012084F8380000BF0020E063DB
:101F1000222084F83A00FFF791F88246A785E785EA
:101F2000A068B0F5805F04D1206910B90025B046E3
:101F300002E035464FF0000800BF002084F838006A
:101F400000BF29E05346002220212046CDF8009012
:101F500000F05AFD08B10320CBE745B9206840687E
:101F6000C0F30800A8F8000008F1020811E0A0681A
:101F7000B0F5805F03D0A06828B9206918B920683F
:101F80004068287004E02068406800F07F002870F6
:101F90006D1CE08D401EE085E08D0028D2D1202010
:101FA00084F83A000020A4E70220A2E710B5034617
:101FB00093F83A0020282FD101B10AB9012010BDB1
:101FC00000BF93F83800012801D10220F7E7012073
:101FD00083F8380000BF99629A85DA850020D863BB
:101FE000222083F83A0000BF002083F8380000BFA9
:101FF0001868C06840F480701C68E0601868406928
:1020000040F001001C6860611868C06840F0200062
:102010001C68E0600020D2E70220D0E71D4A01687A
:10202000914236D11C49098801F4004189BB1A4903
:10203000098801F4804171B1184909780A2903D04F
:102040000021154A118024E01349098841F4004118
:10205000114A11801DE0114909780D2906D10E4958
:10206000098841F480410C4A118012E00B4909783B
:10207000094A1288C2F30D02094B9954064909888E
:10208000491C054A118011460988C72901DD002134
:1020900011807047003801400C0000200E00002025
:1020A000600000202DE9F84F04460E461746994679
:1020B0004FF0000A94F8390020285AD106B117B918
:1020C0000120BDE8F88F00BF94F83800012801D145
:1020D0000220F6E7012084F8380000BF0020E0630A
:1020E000212084F83900FEF7A9FF8246A784E784FF
:1020F000A068B0F5805F04D1206910B90025B04612
:1021000002E035464FF0000800BF002084F8380098
:1021100000BF1BE05346002280212046CDF80090EE
:1021200000F072FC08B10320CBE745B9B8F8000015
:10213000C0F308002168486008F1020803E028782D
:10214000216848606D1CE08C401EE084E08C002813
:10215000E0D15346002240212046CDF8009000F007
:1021600053FC08B10320ACE7202084F8390000209C
:10217000A7E70220A5E7704700BFFEE700BFFEE724
:1021800070472DE9F04704460D461646E068206189
:102190003146284607F04AFDE060D4E9030107F024
:1021A00045FD8046A16807F043FC07462168E068CA
:1021B00007F03EFC81466168E06807F039FC804624
:1021C000616907F09DFA6061D4E9050107F0FCFC44
:1021D00002D2A06960610BE0A06980F0004840462F
:1021E000616907F0F1FC03D2A06980F000406061F2
:1021F0003946484607F084FA8046616907F080FA5C
:10220000E061D4E9070107F0DFFC02D2206AE06157
:102210000BE0206A80F000484046E16907F0D4FCFA
:1022200003D2206A80F00040E061BDE8F08730B55D
:10223000DDE903450160426083608461056230BD71
:102240007047000008B508490968C9084FF47A7258
:10225000B1FBF2F14143009100BF00BF00994A1E5B
:1022600000920029F9D108BD00000020704700004D
:102270002DE9F05F044664250021204607F0A4FB09
:1022800000D20024284607F08BFB0746214607F0C2
:102290009BFB03D2284607F083FB0446C5F1B4013B
:1022A000480807F07DFB8346214607F029FA82465D
:1022B000094907F0BDFB8146084907F08FFA8046BF
:1022C000074907F01DFA074607F04AFB0646304665
:1022D00000F074F9BDE8F09F0000FA4400003443B8
:1022E00000B8884610B5FEF7AFFE10BD704700007D
:1022F00070B504460D461048104908600846456010
:1023000000218160C4600161FFF75CFB60200C4923
:102310000860204604EBD0714910094A5160022040
:102320001146886000220548FFF7CEFA00210348D5
:10233000FFF7B2FB70BD0000002C014044020020FA
:102340008C02002010B50268204B98420ED0204B22
:1023500098420BD0B0F1804F08D01E4B984205D068
:102360001D4B984202D01D4B984203D122F07002BF
:102370004B681A43154B98420ED0154B98420BD020
:10238000B0F1804F08D0134B984205D0124B9842C1
:1023900002D0124B984203D122F44072CB681A4308
:1023A00022F080034C6943EA040202608B68C36236
:1023B0000B688362054B984202D0054B984201D1CD
:1023C0000B6903630123436110BD0000002C014031
:1023D000003401400004004000080040000C0040B0
:1023E00030B501F01F05012404FA05F3046A9C438B
:1023F0000462046A01F01F0502FA05F52C43046229
:1024000030BD000030B5056A25F001050562026A9D
:102410004368846924F0700424F003040D682C439D
:1024200022F002028D682A43104DA84200D103E039
:102430000F4DA84206D100BF22F00802CD682A4302
:1024400022F00402094DA84202D0094DA84207D14A
:1024500023F4807323F400734D692B438D692B4360
:10246000436084614D684563026230BD002C0140C9
:102470000034014030B5056A25F010050562026A96
:102480004368846924F4E04424F440740D6844EA09
:10249000052422F020028D6842EA0512124DA8425E
:1024A00000D103E0114DA84207D100BF22F0800205
:1024B000CD6842EA051222F040020B4DA84202D03C
:1024C0000A4DA84209D123F4806323F400634D69C7
:1024D00043EA85038D6943EA8503436084614D685F
:1024E0008563026230BD0000002C014000340140D1
:1024F00030B5056A25F480750562026A4368C469CF
:1025000024F0700424F003040D682C4322F40072BC
:102510008D6842EA0522124DA84200D103E0114D18
:10252000A84207D100BF22F40062CD6842EA05222A
:1025300022F480620A4DA84202D00A4DA84209D175
:1025400023F4805323F400534D6943EA05138D6946
:1025500043EA05134360C4614D68C563026230BD40
:10256000002C01400034014030B5056A25F4805547
:102570000562036A4468C26922F4E04222F44072B0
:102580000D6842EA052223F400538D6843EA0533BF
:10259000084DA84202D0084DA84204D124F480443A
:1025A0004D6944EA85144460C2614D680564036264
:1025B00030BD0000002C014000340140014908609A
:1025C00070470000342C01402DE9FC416A48006846
:1025D0000068C0F3C00090B100BF002000906648C2
:1025E000006800680090644800684068009000BF80
:1025F00000BF6148006800685F48006840685E4846
:1026000000680068C0F34010002879D04FF0FF3315
:10261000012201A95848FFF75DFC5848B0F8800036
:10262000C0F30E007F286CDA9DF804005349B1F81E
:102630008010C1F30E01514A5054514800880028BF
:1026400052D09DF80400642802D101204D49088031
:102650004C48008890B19DF8040030280EDB9DF8AE
:10266000040039280ADC9DF80400303846490988FE
:1026700001EB810100EB4100434908809DF8040013
:102680006D2831D13F48008870B33F480088FEF77D
:10269000F7F93D4908800846008807F081F90646A9
:1026A0003A4C324621463A48FFF76BFD3849C86933
:1026B000384907F025F80746374907F0B9F90546C4
:1026C000364907F08BF83649086008460068FFF77E
:1026D000CFFD2D48018833A0FDF7A4FD0020294936
:1026E00008802949088000BF2448B0F88000401CB9
:1026F0002249B1F8801060F30E012048A0F8801044
:102700001BE01E48B0F880006FF30E001B49A1F8D3
:1027100080009DF80400B1F88010C1F30E01174A43
:1027200050541046B0F88000401C1146B1F880109B
:1027300060F30E011046A0F880100F480068006892
:10274000C0F30010B0B10D48B0F8800020F4004094
:1027500000F500400949A1F8800000BF002000906A
:1027600005480068006800900348006840680090D1
:1027700000BF00BFBDE8FC8178010020B801002047
:1027800024000020280000202A00002000004843E8
:102790003C00002000007A440000C8420000FA44D7
:1027A0003800002044697374616E63653A202564C3
:1027B0006D6D0D0A0000000070B505466C6A0020C2
:1027C000E085E0842046FFF7E1F970BD0168C96843
:1027D00021F490710268D1600168496921F001011A
:1027E00002685161202180F83A10704710B5044604
:1027F0002068C06820F040002168C860202084F86C
:1028000039002046FFF7B7FC002010BD70B5044624
:1028100094F83A00222847D1A068B0F5805F0CD127
:10282000206950B90025A66A20684068C0F30800F6
:102830003080A06A801CA06215E0A56A0026A0680E
:10284000B0F5805F03D0A06828B9206918B9206866
:102850004068287004E02068406800F07F0028701D
:10286000A06A401CA062E08D401E80B2E085C8B91D
:102870002068C06820F020002168C8602068C06817
:1028800020F480702168C8602068406920F0010051
:1028900021684861202084F83A002046FFF7BEFBFB
:1028A000002070BD0020FCE70220FAE770B5044666
:1028B0002168096921F44051E268114322681161DD
:1028C0002269A1681143626941EA02052168C96869
:1028D00041F20C62914329432268D1602168496921
:1028E00021F44071A2691143226851612D4A216887
:1028F000914202D1FEF72EFD01E0FEF71BFD00EB39
:10290000C00101EB001162689200B1FBF2F100EB33
:10291000C00202EB001263689B00B2FBF3F2642377
:10292000B2FBF3F202EBC20303EB0212A1EB820152
:10293000322202EB01116422B1FBF2F101F0F0014D
:1029400000EBC00202EB001263689B00B2FBF3F2E3
:102950006423B2FBF3F201EB021200EBC00101EBC6
:10296000001163689B00B1FBF3F100EBC00303EBC4
:1029700000136668B600B3FBF6F36426B3FBF6F308
:1029800003EBC30606EB0313A1EB8301322303EB36
:1029900001116423B1FBF3F101F00F01114422682E
:1029A000916070BD00380140014691F8390021283E
:1029B00028D18868B0F5805F0BD1086948B90A6AE8
:1029C0001088C0F308000B685860086A801C086211
:1029D00005E00B6A581C086218780B685860C88CB0
:1029E000401E80B2C88458B90868C06820F08000D2
:1029F0000B68D8600868C06840F040000B68D86079
:102A0000002070470220FCE72DE9F04104460D4606
:102A100017469846069E21E0701CF8B12EB1FEF7CD
:102A20000DFBA0EB0800B04218D92068C06820F464
:102A3000D0702168C8602068406920F001002168DA
:102A40004861202084F8390084F83A0000BF002053
:102A500084F8380000BF0320BDE8F08120680068DA
:102A60002840A84201D1012000E00020B842D3D084
:102A70000020F1E710B50648FFF78AF800BF0122F1
:102A800004490348FFF792FA0028F8D110BD00006E
:102A9000280100200E00002000BFFEE7490050EA98
:102AA000C12018BF04204A0D18BF40F0010040F2B9
:102AB000FF72B2EB515F08BF40F00200012808BF6F
:102AC0000520704702480068C0F3022070470000EC
:102AD0000CED00E010B5002804DB0A07130E054AD0
:102AE000135406E00A07140E034A00F00F031B1FDD
:102AF000D45410BD00E400E018ED00E02DE9F74FDC
:102B0000144694B00021C4E902111599079121F0EF
:102B10000045C9498D4206DC1599C4E9000117B08A
:102B20000020BDE8F08FC549DFF814A3A9423CDDC1
:102B30000799C44E0029C44FC44A1599534619DD5C
:102B400006F0F4FC554506D0C14AC24B06F0EEFC37
:102B5000C4E900010AE04FF0D352BE4B06F0E6FC98
:102B600032463B4606F0E2FCC4E9000117B0012002
:102B7000BDE8F08F06F040F9554506D0B44AB54B94
:102B800006F03AF9C4E900010AE04FF0D352B14B24
:102B900006F032F932463B4606F02EF9C4E9000150
:102BA00017B04FF0FF30BDE8F08FAB49A94215993F
:102BB00078DB21F0004183468846A84AA84B06F0FE
:102BC000ABFB0022A74B06F017F906F01DFB09909E
:102BD00006F077FB06460F469C4A534606F09CFBE0
:102BE00043465A4606F096FC80468A46984A994BD8
:102BF0003046394606F090FB2A0D01250B924246DD
:102C0000534606F087FC032DC4E9000139D00B9828
:102C1000C1F30A51401A05EB45111139814230DAEE
:102C20009148C346784400EB0510CDF80CA00C90F9
:102C3000D0E900233046394606F06EFB02460B46CB
:102C4000049106905846039906F070FC80468A4627
:102C500002460B465846039906F068FC049B069A08
:102C600006F064FC83460C9803913946D0E90223B0
:102C7000304606F051FB5A46039B06F057FC6D1C8C
:102C8000BDE707980028A2BF099817B0BDE8F08FEC
:102C9000616881F000416160099817B04042BDE869
:102CA000F08FFFE784461598C1F31301C0F30A5073
:102CB000A0F2F5304FEA601800F01F06C6F12000C0
:102CC000139000200690079041F4801E05206D4669
:102CD00076B1664A08EB00017A4452F8213002EBE3
:102CE0008101B3404A68139922FA01F1194305E0C2
:102CF0005F4908EB0002794451F82210A1FB0E272E
:102D0000A1FB0C131A449A4234BF0123002303EBA6
:102D1000070A05EB8003D3E901B70F448F4234BFA4
:102D20000121002193448B4411B1934502D903E062
:102D3000934501D2012100E00021C3E901B75144CC
:102D400045F82010011EA0F10100C1DC0298059F8A
:102D500000F10050800F12900298DDE903568000C8
:102D600006F0AFFA834628460D9106F0C1FA6FF0DF
:102D70001D0207F002F8CDE90E01304606F0B8FA60
:102D80006FF03D0206F0F9FF80468A46384606F0AD
:102D9000AFFA6FF05D0206F0F0FF07464246534679
:102DA000119106F029F8DDE90E2306F025F85A46C0
:102DB0000D9B06F021F800250E465A4628460D9B2D
:102DC00006F0B4FBDDE90E2306F0B0FB42465346A5
:102DD00006F0ACFB3A46119B06F09CFBDFF898A08E
:102DE000244A534606F098FA07468846234A244B5D
:102DF0003146284606F090FA3A46434605F0FCFF75
:102E0000074688464FF0A84253463146284606F00A
:102E100083FA3A46434605F0EFFF159A12F0004F49
:102E200004D0129A81F0004152421292C4E900018A
:102E3000129817B0BDE8F08FFB21E93F7CD9024022
:102E4000FB21F93F7370032E8A19A33B0000405405
:102E50003163621A61B4D03DFB21394183C8C96D29
:102E6000305FE43F0000E03FE0A100005CA1000013
:102E70003EA10000182D4454FB21F93D3326A61134
:102E8000460B113C2DE9FF4D21F0004807460C464A
:102E9000B8F1795F08DA06F0B7F9002801BF002021
:102EA000324904B0BDE8F08D3A4623461046194633
:102EB00006F032FA054602462D480E460B4606211C
:102EC000784400F05DF82A46334606F025FADDE93D
:102ED000022382468B463846214606F01DFA0446F8
:102EE0000F4652465B462846314606F015FA224602
:102EF0003B4606F01BFB07468A464FF0FF3228464A
:102F0000314606F03AFF1B4A90450ADA3A465346E4
:102F100006F00CFB04B00022BDE8F04D134B06F0A8
:102F2000F9BA154A4245A8BFA8F500154FF00004AC
:102F3000B8BF124D22462B4606F0F8FA06468846E0
:102F400022462B460020094906F0F0FA04460D46B9
:102F50003A4653463046414606F0E8FA04B0224667
:102F60002B46BDE8F04D06F0D5BA00000000F03F5A
:102F7000149F00003333D33F0000E93F0000D23FED
:102F80002DE9F0414F1E00EBC7010446D1E90001D5
:102F900015461E4637F006020DD02A46334606F087
:102FA000BBF97F1E04EBC703D3E9002305F024FF20
:102FB00037F00602F1D1022F25D0042F13D0062FAF
:102FC00018BFBDE8F0812A46334606F0A5F9D4E9DA
:102FD0000A2305F011FF2A46334606F09DF9D4E98D
:102FE000082305F009FF2A46334606F095F9D4E98F
:102FF000062305F001FF2A46334606F08DF9D4E991
:10300000042305F0F9FE2A46334606F085F9D4E993
:10301000022305F0F1FE2A46334606F07DF9D4E995
:103020000023BDE8F04105F0E7BE00002DE9FF4DAB
:10303000054621F0004084B00C46B0F1795F0BDA10
:103040002846FFF72BFD042808BF00F06FF828463C
:1030500008B02146BDE8F08D2A460B46104606F022
:103060005BF906460F462A46234606F055F9804688
:1030700026488A4632463B4605217844FFF780FFC2
:1030800083461098029160B3214A224B4046514634
:1030900006F042F9CDE900015A4640465146029BEE
:1030A00006F03AF982468846DDE906014FF0FF3224
:1030B00006F063FE5246434606F038FA32463B4677
:1030C00006F02AF9DDE9062306F030FADDE90023EF
:1030D00006F02CFA08B02A462346BDE8F04D06F06B
:1030E00019BA0B465A463046394606F015F9084AD1
:1030F000084B05F081FE4246534606F00DF908B034
:103100002A462346BDE8F04D05F076BE529E0000EB
:10311000495555555555C5BF012206F02EBE002212
:1031200013461046114605F017BF0000024A002062
:10313000110706F022BE000001FDFFFF30380A280B
:1031400001D2012070470020704700BF704710B5C2
:1031500002460B460020002104E0545C0444A0B267
:103160004C1CA1B29942F8DB10BD000070B50646B8
:103170000C46304600F080F800250CE0642000F09A
:1031800033FA681CC0B20546052804D115A0FDF726
:1031900049F8012070BD2346022203214FF6FF703B
:1031A00000F036F80028E9D10CE0642000F01CFAA9
:1031B000681CC0B20546052804D10EA0FDF732F800
:1031C0000120E7E7208800220A2100F078F9002892
:1031D000EBD10CA0FDF726F801200C490880002057
:1031E000D8E70000414444524553534552524F5290
:1031F0000D0A00004E4F524D414C4552524F520D58
:103200000A0000004F4B0D0A0000000024000020BF
:103210002DE9FE4304460D4616461F4651208DF803
:1032200000000A208DF8010020128DF80200E0B2A3
:103230008DF8030000208DF804008DF805508DF8FE
:10324000066007216846FFF782FF80464FEA282084
:103250008DF8070008F0FF008DF8080000F04CF82A
:103260000921684600F05AF8384600F065F88146B2
:103270004846BDE8FE83000010B5044608480949E9
:1032800008600846446000218160C16001610C2132
:10329000416100218161C161FEF724FD10BD000084
:1032A00000500040780100200948B0F8800001215A
:1032B000B1EBD03F09D100200549B1F88010C1F32E
:1032C0000E01034A5054104670470020FCE70000EE
:1032D000B80100200748B0F880000121B1EBD03FD1
:1032E00005D10448B0F88000C0F30E0070470020FC
:1032F000FCE70000B80100200748B0F880006FF339
:103300000E000549A1F880000846B0F8800020F4BE
:103310000040A1F880007047B801002070B5044655
:103320000D464FF0FF332A4621460248FEF7BAFE0B
:1033300070BD0000780100202DE9F14F82B000241B
:10334000002001908246002710E0FFF7ADFF044601
:10335000012000F049F90198401C80B201900198C9
:10336000B0F57A7F02D10220BDE8FE8F002CECD0B0
:10337000FFF7B0FF8246BAF1080F02DBBAF5877F8C
:1033800001DD0320F0E700BFE05D552804D1781C83
:10339000205C0A2800D109E0AAF10200B84202D05C
:1033A000781C87B201E00320DEE7EDE700BF3D4671
:1033B000AAEB05001FFA80FBBBF1080F02DBBBF58F
:1033C000877F01DD0320CFE7281D205C0090009857
:1033D000B0BBE81D14F8009009F10A00584501DD62
:1033E0000320C1E709F1080291B26019FFF7AFFEAF
:1033F000064605EB09000930215C05EB09000830A1
:10340000205C01EB00201FFA80F846451DD1E81D25
:10341000205C012805D105F10800215C029801809B
:1034200011E0E81D205C02280BD105F10900215CA8
:10343000401E205C01EB002081B20298018002E076
:1034400005E0032090E700208EE704208CE7009839
:10345000012812D160190621FFF779FE0646E81D02
:10346000215CA81D205C01EB00201FFA80F8464576
:1034700001D1002078E7042076E70098FF281CD1CE
:10348000A81C205CFF2816D1E81C205CFF2812D164
:1034900060190621FFF75BFE0646E81D215CA81DAA
:1034A000205C01EB00201FFA80F8464501D1052081
:1034B0005AE7042058E7032056E7032054E72DE994
:1034C000FE4304460D46164651208DF800000A20A2
:1034D0008DF8010020128DF80200E0B28DF8030093
:1034E00001208DF804008DF805508DF806008DF848
:1034F000076008216846FFF72AFE074638128DF854
:103500000800F8B28DF80900FFF7F6FE0A216846B8
:10351000FFF704FF0020FFF70FFF80464046BDE89D
:10352000FE83000000B5244B21F0004287B09A4290
:10353000DCBF0022134629DD204B9A4208D140B956
:103540004FF00100FCF7EBFFFFF7E9FD07B000BD0E
:1035500003DBFFF7E1FD07B000BD02AAFFF7CEFADB
:1035600010F0030104BF0DF1080C9CE80F000DD012
:10357000012001290ED0022914D00DF1080C009071
:103580009CE80F00FFF752FD07B000BDFFF77AFC83
:1035900007B000BD0DF1080C00909CE80F00FFF78C
:1035A00045FD05E00DF1080C9CE80F00FFF76AFCF3
:1035B00007B081F0004100BDFB21E93F0000F07F32
:1035C00010B5044600204FF0E0210861FEF74EF9E7
:1035D0002046E11704EB5171C1F3CF01014A11807C
:1035E00010BD00000600002070B504464FF47A704C
:1035F00094FBF0F594FBF0F100FB114603E0074863
:1036000000F00EF86D1E002DF9D12EB14FF47A7135
:1036100006FB01F000F004F870BD000040420F000E
:103620000146114A12884A434FF0E0235A610022B2
:103630009A611A46126942F001021A6100BF4FF006
:10364000E022106900F001021AB100F48032002A71
:10365000F5D04FF0E022126922F001024FF0E02392
:103660001A6100229A6170470600002010B58AB0E6
:10367000044622460AA104A8FCF7E0FD04A90EA016
:10368000FCF7D0FD1F2004A910221346CDE900212C
:103690000290B0229721202005F0E6F80AB010BD74
:1036A00041544B2D4D5335334C304D2049443A2035
:1036B000307825303478000025730D0A00000000B2
:1036C00000BF054A126802F04002002AF9D0C2B2D7
:1036D000014B1B1D1A6070470038014000B585B0D2
:1036E00000BF00BF2948806940F010002749886169
:1036F0000846806900F01000009000BF00BF00BFC6
:1037000000BF00BF0846806940F004008861084699
:10371000806900F00400009000BF00BF00BF00BF40
:1037200000BF0846806940F004008861084680694F
:1037300000F00400009000BF00BF00BF20200190F7
:1037400000200290012003900320049001A910485A
:10375000FDF7C4FA4FF400400190002002900120D0
:1037600003900320049001A90A48FDF7B7FA01204D
:10377000019000200290022003900320049001A9F0
:103780000448FDF7ABFA05B000BD00000010024090
:10379000001001400008014078B5044600261B488F
:1037A0000588408845430021084604F095FD00BF88
:1037B0001648008900904FF080701549086140005C
:1037C0000861BDF80000134908604FF4000010497B
:1037D0000861802008618000086100BF00BF4010C0
:1037E00008614004086100BF08E00A4804604FF423
:1037F00000000749086180200861761CAE42F4D3BE
:103800004FF400700249086178BD00006801002093
:10381000001001400C0C014010B50446584884715A
:10382000002C58D1F020564908804FF4A0704880F1
:103830000846808845F21051884210D14FF430502C
:103840004F4908814FF4285048814FF42C5088810B
:103850004FF4F07008804FF4487048801AE04848F0
:10386000808841F6631188420DD12C20444908819B
:103870002B2048812A2088814FF4F07008804FF473
:103880004870488006E02C203D4908812A20488164
:103890002B2088813A48808845F21031884205D033
:1038A0003748808847F29671884206D14FF4A0705D
:1038B000334908804FF4F07048803148808849F6D9
:1038C0000601884258D14FF4F0702D4908804FF41A
:1038D0004870488050E04FF4A07029490880F020DB
:1038E00048800846808845F21051884210D14FF434
:1038F0003050234908814FF4285048814FF42C5010
:1039000088814FF4487008804FF4F070488020E0C0
:103910001B48808841F66311884205D0184880888A
:1039200049F6060188420DD12C20154908812A202C
:1039300048812B2088814FF4487008804FF4F07044
:10394000488006E02C200E4908812A2048812B203F
:1039500088810B48808845F21031884205D008489C
:10396000808847F29671884206D14FF4F07004497E
:1039700008804FF4A0704880002004F019FA10BDB0
:103980006801002078B505460E46144631462846A3
:1039900004F0A2FC00BF1248008900904FF0807034
:1039A0001049086140000861BDF800000E49086038
:1039B0004FF400000B490861802008618000086115
:1039C00000BF00BF40100861400408610648046061
:1039D0004FF400000861802008618000086178BD14
:1039E00068010020001001400C0C014008B5CF20F8
:1039F00000904FF08070FE49086140000861BDF8FA
:103A00000000FC4908604FF40000F949086180207B
:103A100008618000086100BF002004F0DFFFC120C2
:103A200004F0DCFF302004F0D9FFED2000904FF0CF
:103A30008070EF49086140000861BDF80000ED4961
:103A400008604FF40000EA490861802008618000A6
:103A5000086100BF642004F0C1FF032004F0BEFF32
:103A6000122004F0BBFF812004F0B8FFE820009092
:103A70004FF08070DE49086140000861BDF8000029
:103A8000DC4908604FF40000D949086180200861D2
:103A90008000086100BF852004F0A0FF102004F022
:103AA0009DFF7A2004F09AFFCB2000904FF08070A9
:103AB000CF49086140000861BDF80000CD490860A9
:103AC0004FF40000CA490861802008618000086145
:103AD00000BF392004F082FF2C2004F07FFF00207B
:103AE00004F07CFF342004F079FF022004F076FF1C
:103AF000F72000904FF08070BD49086140000861D8
:103B0000BDF80000BB4908604FF40000B8490861E7
:103B1000802008618000086100BF202004F05EFF63
:103B2000EA2000904FF08070B149086140000861C0
:103B3000BDF80000AF4908604FF40000AC490861CF
:103B4000802008618000086100BF002004F046FF6B
:103B5000002004F043FFC02000904FF08070A44983
:103B6000086140000861BDF80000A24908604FF4F8
:103B700000009F490861802008618000086100BF43
:103B80001B2004F02BFFC12000904FF0807098495B
:103B9000086140000861BDF80000964908604FF4D4
:103BA000000093490861802008618000086100BF1F
:103BB000012004F013FFC52000904FF080708C4965
:103BC000086140000861BDF800008A4908604FF4B0
:103BD000000087490861802008618000086100BFFB
:103BE000302004F0FBFE302004F0F8FEC7200090E7
:103BF0004FF080707E49086140000861BDF8000008
:103C00007C4908604FF40000794908618020086110
:103C10008000086100BFB72004F0E0FE362000906D
:103C20004FF080707249086140000861BDF80000E3
:103C3000704908604FF400006D49086180200861F8
:103C40008000086100BF482004F0C8FE3A200090C0
:103C50004FF080706649086140000861BDF80000BF
:103C6000644908604FF400006149086180200861E0
:103C70008000086100BF552004F0B0FEB120009024
:103C80004FF080705A49086140000861BDF800009B
:103C9000584908604FF400005549086180200861C8
:103CA0008000086100BF002004F098FE1A2004F094
:103CB00095FEB62000904FF080704D49086140009D
:103CC0000861BDF800004B4908604FF40000484906
:103CD0000861802008618000086100BF0A2004F0AC
:103CE0007DFEA22004F07AFEF22000904FF080705A
:103CF0003F49086140000861BDF800003D49086087
:103D00004FF400003A490861802008618000086192
:103D100000BF002004F062FE262000904FF080706B
:103D20003349086140000861BDF80000314908606E
:103D30004FF400002E49086180200861800008616E
:103D400000BF012004F04AFEE02000904FF0807098
:103D50002749086140000861BDF800002549086056
:103D60004FF400002249086180200861800008614A
:103D700000BF0F2004F032FE2A2004F02FFE28207E
:103D800004F02CFE082004F029FE0E2004F026FE8C
:103D9000082004F023FE542004F020FEA92004F0A3
:103DA0001DFE432004F01AFE0A2004F017FE0F2027
:103DB00004F014FE002004F011FE002004F00EFEBA
:103DC000002004F00BFE002004F008FEE12000902B
:103DD0004FF080700649086140000861BDF800009E
:103DE000044908604FF4000001490861802003E0A5
:103DF000001001400C0C014008618000086100BF08
:103E0000002004F0EBFD152004F0E8FD172004F07D
:103E1000E5FD072004F0E2FD112004F0DFFD06209F
:103E200004F0DCFD2B2004F0D9FD562004F0D6FD73
:103E30003C2004F0D3FD052004F0D0FD102004F058
:103E4000CDFD0F2004F0CAFD3F2004F0C7FD3F2048
:103E500004F0C4FD0F2004F0C1FD2B2000904FF0B2
:103E600080703649086140000861BDF8000034499F
:103E700008604FF40000314908618020086180002B
:103E8000086100BF002004F0A9FD002004F0A6FD99
:103E9000012004F0A3FD3F2004F0A0FD2A200090A3
:103EA0004FF080702549086140000861BDF80000AE
:103EB000234908604FF40000204908618020086110
:103EC0008000086100BF002004F088FD002004F09D
:103ED00085FD002004F082FDEF2004F07FFD11201D
:103EE00000904FF080701549086140000861BDF8EE
:103EF0000000134908604FF4000010490861802059
:103F000008618000086100BF7820FFF76DFB292061
:103F100000904FF080700949086140000861BDF8C9
:103F20000000074908604FF4000004490861802040
:103F300008618000086100BF08BD0000001001405A
:103F40000C0C014008B5FF2000904FF08070FE4936
:103F5000086140000861BDF80000FC4908604FF4AA
:103F60000000F9490861802008618000086100BFF5
:103F7000FF2004F033FD982004F030FD062004F00B
:103F80002DFDBC2000904FF08070EF49086140008B
:103F90000861BDF80000ED4908604FF40000EA49EF
:103FA0000861802008618000086100BF012004F0E2
:103FB00015FD0F2004F012FD612004F00FFDFF201D
:103FC00004F00CFD012004F009FD012004F006FDC1
:103FD0000B2004F003FD102004F000FD372004F056
:103FE000FDFC632004F0FAFCFF2004F0F7FCFF2046
:103FF00004F0F4FC012004F0F1FC012004F0EEFCDC
:10400000002004F0EBFC002004F0E8FCFF2004F0AA
:10401000E5FC522004F0E2FC012004F0DFFC00206B
:1040200004F0DCFC402004F0D9FCBD2000904FF0EF
:104030008070C549086140000861BDF80000C349AF
:1040400008604FF40000C0490861802008618000CA
:10405000086100BF012004F0C1FC232004F0BEFC75
:10406000452004F0BBFC672004F0B8FC012004F0FC
:10407000B5FC232004F0B2FC452004F0AFFC67201F
:1040800004F0ACFCBE2000904FF08070AE49086197
:1040900040000861BDF80000AC4908604FF4000022
:1040A000A9490861802008618000086100BF0020E4
:1040B00004F094FC012004F091FCAB2004F08EFC91
:1040C000602004F08BFC222004F088FC222004F005
:1040D00085FC222004F082FC222004F07FFC2220B8
:1040E00004F07CFCC72000904FF080709649086176
:1040F00040000861BDF80000944908604FF40000DA
:1041000091490861802008618000086100BF362065
:1041100004F064FCED2000904FF080708A49086143
:1041200040000861BDF80000884908604FF40000B5
:1041300085490861802008618000086100BF7F20F8
:1041400004F04CFC0F2004F049FCC02000904FF01C
:1041500080707D49086140000861BDF800007B491E
:1041600008604FF4000078490861802008618000F1
:10417000086100BF0F2004F031FC0B2004F02EFC7E
:104180000A2004F02BFCFC2000904FF080706E4958
:10419000086140000861BDF800006C4908604FF4F8
:1041A000000069490861802008618000086100BF43
:1041B000082004F013FCDF2000904FF0807062496B
:1041C000086140000861BDF80000604908604FF4D4
:1041D00000005D490861802008618000086100BF1F
:1041E000002004F0FBFB002004F0F8FB002004F0AA
:1041F000F5FB002004F0F2FB002004F0EFFB202090
:1042000004F0ECFBF32000904FF080704E49086101
:1042100040000861BDF800004C4908604FF4000000
:1042200049490861802008618000086100BF74204E
:1042300004F0D4FBB42000904FF080704249086134
:1042400040000861BDF80000404908604FF40000DC
:104250003D490861802008618000086100BF00209E
:1042600004F0BCFB002004F0B9FB002004F0B6FB16
:10427000F72000904FF080703349086140000861DA
:10428000BDF80000314908604FF400002E49086174
:10429000802008618000086100BF822004F09EFB3E
:1042A000B12000904FF080702749086140000861FC
:1042B000BDF80000254908604FF40000224908615C
:1042C000802008618000086100BF002004F086FBA8
:1042D000132004F083FB132004F080FBF2200090F5
:1042E0004FF080701849086140000861BDF8000077
:1042F000164908604FF400001349086180200861E6
:104300008000086100BF802004F068FB042004F0F6
:1043100065FB402004F062FB282004F05FFBC12015
:1043200000904FF080700849086140000861BDF8B6
:104330000000064908604FF400000349086180202E
:1043400008618000086103E0001001400C0C01408E
:1043500000BF172004F042FB882004F03FFB8820B8
:1043600004F03CFB202004F039FBE02000904FF0EB
:1043700080709F49086140000861BDF800009D49B8
:1043800008604FF400009A490861802008618000AD
:10439000086100BF002004F021FB0A2004F01EFB8E
:1043A000122004F01BFB102004F018FB0E2004F078
:1043B00015FB202004F012FBCC2004F00FFB07209B
:1043C00004F00CFB062004F009FB0B2004F006FBB4
:1043D0000E2004F003FB0F2004F000FB0D2004F07E
:1043E000FDFA152004F0FAFA102004F0F7FA002084
:1043F00004F0F4FAE12000904FF080707C490861ED
:1044000040000861BDF800007A4908604FF40000E0
:1044100077490861802008618000086100BF0020A2
:1044200004F0DCFA0B2004F0D9FA132004F0D6FAD9
:104430000D2004F0D3FA0E2004F0D0FA1B2004F073
:10444000CDFA712004F0CAFA062004F0C7FA06205B
:1044500004F0C4FA0A2004F0C1FA0F2004F0BEFAF6
:104460000E2004F0BBFA0F2004F0B8FA152004F077
:10447000B5FA0C2004F0B2FA002004F0AFFA2A20BA
:1044800000904FF080705A49086140000861BDF803
:104490000000584908604FF4000055490861802029
:1044A00008618000086100BF002004F097FA002036
:1044B00004F094FA012004F091FADF2004F08EFA5F
:1044C0002B2000904FF0807049490861400008613E
:1044D000BDF80000474908604FF4000044490861F6
:1044E000802008618000086100BF002004F076FA97
:1044F000002004F073FA032004F070FA1F2004F087
:104500006DFA3A2000904FF0807039490861400000
:104510000861BDF80000374908604FF400003449D5
:104520000861802008618000086100BF552004F008
:1045300055FA362000904FF080702D4908614000F8
:104540000861BDF800002B4908604FF400002849BD
:104550000861802008618000086100BF002004F02D
:104560003DFA112000904FF0807021490861400011
:104570000861BDF800001F4908604FF400001C49A5
:104580000861802008618000086100BF7820FFF783
:104590002BF8292000904FF08070154908614000E9
:1045A0000861BDF80000134908604FF4000010498D
:1045B0000861802008618000086100BF1420FFF7B7
:1045C00013F82C2000904FF08070094908614000DA
:1045D0000861BDF80000074908604FF40000044975
:1045E0000861802008618000086100BF08BD0000EC
:1045F000001001400C0C014008B5ED2000904FF078
:104600008070FE49086140000861BDF80000FC4967
:1046100008604FF40000F9490861802008618000BB
:10462000086100BF012004F0D9F9FE2004F0D6F99A
:10463000EE2000904FF08070F04908614000086162
:10464000BDF80000EE4908604FF40000EB49086136
:10465000802008618000086100BFDE2004F0BEF900
:10466000212004F0BBF9F12000904FF08070E34965
:10467000086140000861BDF80000E14908604FF49E
:104680000000DE490861802008618000086100BFE9
:10469000012004F0A3F9DF2000904FF08070D7498B
:1046A000086140000861BDF80000D54908604FF47A
:1046B0000000D2490861802008618000086100BFC5
:1046C000102004F08BF9C42000904FF08070CB498B
:1046D000086140000861BDF80000C94908604FF456
:1046E0000000C6490861802008618000086100BFA1
:1046F0008F2004F073F9C62000904FF08070BF49FE
:10470000086140000861BDF80000BD4908604FF431
:104710000000BA490861802008618000086100BF7C
:10472000002004F05BF9E22004F058F9E22004F0E4
:1047300055F9E22004F052F9BF2000904FF080704C
:10474000AE49086140000861BDF80000AC4908604E
:104750004FF40000A94908618020086180000861C9
:1047600000BFAA2004F03AF9B02000904FF080700A
:10477000A249086140000861BDF80000A049086036
:104780004FF400009D4908618020086180000861A5
:1047900000BF0D2004F022F9002004F01FF90D20C5
:1047A00004F01CF9002004F019F9112004F016F9A6
:1047B000002004F013F9192004F010F9002004F08F
:1047C0000DF9212004F00AF9002004F007F92D204A
:1047D00004F004F9002004F001F93D2004F0FEF893
:1047E000002004F0FBF85D2004F0F8F8002004F04D
:1047F000F5F85D2004F0F2F8002004F0EFF8B120A5
:1048000000904FF080707D49086140000861BDF85C
:1048100000007B4908604FF400007849086180205F
:1048200008618000086100BF802004F0D7F80020F4
:1048300004F0D4F88B2004F0D1F8002004F0CEF876
:10484000962004F0CBF8002004F0C8F8B2200090C5
:104850004FF080706949086140000861BDF80000B0
:10486000674908604FF400006449086180200861CE
:104870008000086100BF002004F0B0F8002004F0C0
:10488000ADF8022004F0AAF8002004F0A7F80320F5
:1048900004F0A4F8002004F0A1F8B32000904FF039
:1048A00080705649086140000861BDF80000544915
:1048B00008604FF4000051490861802008618000C1
:1048C000086100BF002004F089F8002004F086F899
:1048D000002004F083F8002004F080F8002004F0A9
:1048E0007DF8002004F07AF8002004F077F800202A
:1048F00004F074F8002004F071F8002004F06EF861
:10490000002004F06BF8002004F068F8002004F0A8
:1049100065F8002004F062F8002004F05FF8002041
:1049200004F05CF8002004F059F8002004F056F878
:10493000002004F053F8002004F050F8002004F0A8
:104940004DF8002004F04AF8002004F047F8002059
:1049500004F044F8B42000904FF0807027490861BB
:1049600040000861BDF80000254908604FF40000D0
:1049700022490861802008618000086100BF8B2007
:1049800004F02CF8002004F029F8962004F026F812
:10499000002004F023F8A12004F020F8002004F007
:1049A0001DF8B52000904FF0807014490861400058
:1049B0000861BDF80000124908604FF400000F497B
:1049C0000861802008618000086100BF022004F0B7
:1049D00005F8002004F002F8032003F0FFFF002098
:1049E00003F0FCFF042003F0F9FF002003F0F6FFC2
:1049F000B62000904FF08070004903E000100140A5
:104A00000C0C0140086140000861BDF80000FE493F
:104A100008604FF40000FD490861802008618000B3
:104A2000086100BF002003F0D9FF002003F0D6FF8B
:104A3000B72000904FF08070F44908614000086191
:104A4000BDF80000F04908604FF40000EF4908612C
:104A5000802008618000086100BF002003F0BEFFD5
:104A6000002003F0BBFF3F2003F0B8FF002003F05D
:104A7000B5FF5E2003F0B2FF002003F0AFFF64201B
:104A800003F0ACFF002003F0A9FF8C2003F0A6FF89
:104A9000002003F0A3FFAC2003F0A0FF002003F0F0
:104AA0009DFFDC2003F09AFF002003F097FF7020A9
:104AB00003F094FF002003F091FF902003F08EFF9D
:104AC000002003F08BFFEB2003F088FF002003F0B1
:104AD00085FFDC2003F082FF002003F07FFFB82079
:104AE00000904FF08070C949086140000861BDF82E
:104AF0000000C54908604FF40000C44908618020E7
:104B000008618000086100BF002003F067FF0020FB
:104B100003F064FF002003F061FF002003F05EFF5C
:104B2000002003F05BFF002003F058FF002003F09B
:104B300055FF002003F052FFBA2000904FF0807024
:104B4000B249086140000861BDF80000AE49086044
:104B50004FF40000AD4908618020086180000861C1
:104B600000BF242003F03AFF002003F037FF0020AD
:104B700003F034FF002003F031FFC12000904FF01C
:104B80008070A249086140000861BDF800009E499C
:104B900008604FF400009D49086180200861800092
:104BA000086100BF202003F019FF002003F016FF6A
:104BB000542003F013FF002003F010FFFF2003F048
:104BC0000DFF002003F00AFFC22000904FF080701C
:104BD0008E49086140000861BDF800008A490860FC
:104BE0004FF4000089490861802008618000086155
:104BF00000BF0A2003F0F2FE002003F0EFFE0420C5
:104C000003F0ECFE002003F0E9FEC32000904FF01B
:104C100080707E49086140000861BDF800007A4953
:104C200008604FF400007949086180200861800025
:104C3000086100BF3C2003F0D1FE002003F0CEFE4F
:104C40003A2003F0CBFE002003F0C8FE392003F029
:104C5000C5FE002003F0C2FE372003F0BFFE002097
:104C600003F0BCFE3C2003F0B9FE002003F0B6FECA
:104C7000362003F0B3FE002003F0B0FE322003F034
:104C8000ADFE002003F0AAFE2F2003F0A7FE0020B7
:104C900003F0A4FE2C2003F0A1FE002003F09EFEF2
:104CA000292003F09BFE002003F098FE262003F04D
:104CB00095FE002003F092FE242003F08FFE0020DA
:104CC00003F08CFE242003F089FE002003F086FE12
:104CD000232003F083FE002003F080FE3C2003F03D
:104CE0007DFE002003F07AFE362003F077FE0020E0
:104CF00003F074FE322003F071FE002003F06EFE1C
:104D00002F2003F06BFE002003F068FE2C2003F040
:104D100065FE002003F062FE292003F05FFE002004
:104D200003F05CFE262003F059FE002003F056FE3F
:104D3000242003F053FE002003F050FE242003F053
:104D40004DFE002003F04AFE232003F047FE002022
:104D500003F044FEC42000904FF080702B4908619E
:104D600040000861BDF80000274908604FF40000CA
:104D700026490861802008618000086100BF622028
:104D800003F02CFE002003F029FE052003F026FE90
:104D9000002003F023FE842003F020FE002003F017
:104DA0001DFEF02003F01AFE002003F017FE18206D
:104DB00003F014FE002003F011FEA42003F00EFE09
:104DC000002003F00BFE182003F008FE002003F083
:104DD00005FE502003F002FE002003F0FFFD0C2032
:104DE00003F0FCFD002003F0F9FD172003F0F6FDB1
:104DF000002003F0F3FD952003F0F0FD002003F008
:104E0000EDFDF32004E000000C0C01400010014017
:104E100003F0E4FD002003F0E1FDE62003F0DEFDF9
:104E2000002003F0DBFDC52000904FF08070FE49AC
:104E3000086140000861BDF80000FC4908604FF4BB
:104E40000000F9490861802008618000086100BF06
:104E5000322003F0C3FD002003F0C0FD442003F026
:104E6000BDFD002003F0BAFD652003F0B7FD002072
:104E700003F0B4FD762003F0B1FD002003F0AEFD99
:104E8000882003F0ABFD002003F0A8FDC6200090B1
:104E90004FF08070E449086140000861BDF80000EF
:104EA000E24908604FF40000DF4908618020086192
:104EB0008000086100BF202003F090FD002003F077
:104EC0008DFD172003F08AFD002003F087FD0120EF
:104ED00003F084FD002003F081FDC72000904FF017
:104EE0008070D149086140000861BDF80000CF49D9
:104EF00008604FF40000CC49086180200861800000
:104F0000086100BF002003F069FD002003F066FD8A
:104F1000002003F063FD002003F060FDC820009036
:104F20004FF08070C049086140000861BDF8000082
:104F3000BE4908604FF40000BB4908618020086149
:104F40008000086100BF002003F048FD002003F04E
:104F500045FD002003F042FD002003F03FFDC92085
:104F600000904FF08070B049086140000861BDF8C2
:104F70000000AE4908604FF40000AB490861802092
:104F800008618000086100BF002003F027FD0020B9
:104F900003F024FD002003F021FD002003F01EFD9E
:104FA000002003F01BFD002003F018FD002003F09B
:104FB00015FD002003F012FD002003F00FFD00207E
:104FC00003F00CFD002003F009FD002003F006FDB6
:104FD000002003F003FD002003F000FD002003F09B
:104FE000FDFC002003F0FAFCE02000904FF0807000
:104FF0008D49086140000861BDF800008B490860D8
:105000004FF4000088490861802008618000086131
:1050100000BF162003F0E2FC002003F0DFFC1C20A0
:1050200003F0DCFC002003F0D9FC212003F0D6FCC7
:10503000002003F0D3FC362003F0D0FC002003F066
:10504000CDFC462003F0CAFC002003F0C7FC522030
:1050500003F0C4FC002003F0C1FC642003F0BEFC9C
:10506000002003F0BBFC7A2003F0B8FC002003F022
:10507000B5FC8B2003F0B2FC002003F0AFFC9920BC
:1050800003F0ACFC002003F0A9FCA82003F0A6FC70
:10509000002003F0A3FCB92003F0A0FC002003F0E3
:1050A0009DFCC42003F09AFC002003F097FCCA206A
:1050B00003F094FC002003F091FCD22003F08EFC5E
:1050C000002003F08BFCD92003F088FC002003F0C3
:1050D00085FCE02003F082FC002003F07FFCF3203D
:1050E00003F07CFC002003F079FCE12000904FF0FD
:1050F00080704D49086140000861BDF800004B49CF
:1051000008604FF400004849086180200861800071
:10511000086100BF162003F061FC002003F05EFC74
:105120001C2003F05BFC002003F058FC222003F05D
:1051300055FC002003F052FC362003F04FFC002009
:1051400003F04CFC452003F049FC002003F046FC32
:10515000522003F043FC002003F040FC642003F0E5
:105160003DFC002003F03AFC7A2003F037FC0020DD
:1051700003F034FC8B2003F031FC002003F02EFC04
:10518000992003F02BFC002003F028FCA82003F05A
:1051900025FC002003F022FCB92003F01FFC0020B6
:1051A00003F01CFCC42003F019FC002003F016FCE3
:1051B000CA2003F013FC002003F010FCD22003F0FF
:1051C0000DFC002003F00AFCD82003F007FC0020AF
:1051D00003F004FCE02003F001FC002003F0FEFBE0
:1051E000F32003F0FBFB002003F0F8FBE22000902B
:1051F0004FF080700C49086140000861BDF8000064
:105200000A4908604FF400000749086180200861DE
:105210008000086100BF052003F0E0FB002003F0E0
:10522000DDFB0B2004E00000001001400C0C0140ED
:1052300003F0D4FB002003F0D1FB1B2003F0CEFBD6
:10524000002003F0CBFB342003F0C8FB002003F068
:10525000C5FB442003F0C2FB002003F0BFFB4F203E
:1052600003F0BCFB002003F0B9FB612003F0B6FBA8
:10527000002003F0B3FB792003F0B0FB002003F023
:10528000ADFB882003F0AAFB002003F0A7FB9720CA
:1052900003F0A4FB002003F0A1FBA62003F09EFB7B
:1052A000002003F09BFBB72003F098FB002003F0E5
:1052B00095FBC22003F092FB002003F08FFBC72078
:1052C00003F08CFB002003F089FBD12003F086FB68
:1052D000002003F083FBD62003F080FB002003F0C6
:1052E0007DFBDD2003F07AFB002003F077FBF32049
:1052F00003F074FB002003F071FBE32000904FF0FB
:105300008070FE49086140000861BDF80000FC495A
:1053100008604FF40000F9490861802008618000AE
:10532000086100BF052003F059FB002003F056FB85
:105330000A2003F053FB002003F050FB1C2003F075
:105340004DFB002003F04AFB332003F047FB002015
:1053500003F044FB442003F041FB002003F03EFB3C
:10536000502003F03BFB002003F038FB622003F0E9
:1053700035FB002003F032FB782003F02FFB0020E8
:1053800003F02CFB882003F029FB002003F026FB10
:10539000972003F023FB002003F020FBA62003F05E
:1053A0001DFB002003F01AFBB72003F017FB0020C1
:1053B00003F014FBC22003F011FB002003F00EFBEE
:1053C000C72003F00BFB002003F008FBD12003F003
:1053D00005FB002003F002FBD52003F0FFFA0020BC
:1053E00003F0FCFADD2003F0F9FA002003F0F6FAEE
:1053F000F32003F0F3FA002003F0F0FAE420009029
:105400004FF08070BD49086140000861BDF80000A0
:10541000BB4908604FF40000B8490861802008616A
:105420008000086100BF012003F0D8FA002003F0DB
:10543000D5FA012003F0D2FA002003F0CFFA0220BF
:1054400003F0CCFA002003F0C9FA2A2003F0C6FAD0
:10545000002003F0C3FA3C2003F0C0FA002003F060
:10546000BDFA4B2003F0BAFA002003F0B7FA5D2032
:1054700003F0B4FA002003F0B1FA742003F0AEFA9E
:10548000002003F0ABFA842003F0A8FA002003F018
:10549000A5FA932003F0A2FA002003F09FFAA220BD
:1054A00003F09CFA002003F099FAB32003F096FA77
:1054B000002003F093FABE2003F090FA002003F0DE
:1054C0008DFAC42003F08AFA002003F087FACD2079
:1054D00003F084FA002003F081FAD32003F07EFA6F
:1054E000002003F07BFADD2003F078FA002003F0BF
:1054F00075FAF32003F072FA002003F06FFAE5204A
:1055000000904FF080707D49086140000861BDF84F
:1055100000007B4908604FF4000078490861802052
:1055200008618000086100BF002003F057FA0020E6
:1055300003F054FA002003F051FA002003F04EFA71
:10554000022003F04BFA002003F048FA292003F070
:1055500045FA002003F042FA3C2003F03FFA002015
:1055600003F03CFA4B2003F039FA002003F036FA3E
:105570005D2003F033FA002003F030FA742003F0CA
:105580002DFA002003F02AFA842003F027FA0020E5
:1055900003F024FA932003F021FA002003F01EFA0E
:1055A000A22003F01BFA002003F018FAB32003F046
:1055B00015FA002003F012FABE2003F00FFA0020C3
:1055C00003F00CFAC42003F009FA002003F006FAF5
:1055D000CD2003F003FA002003F000FAD32003F0FB
:1055E000FDF9002003F0FAF9DC2003F0F7F90020C0
:1055F00003F0F4F9F32003F0F1F9002003F0EEF9E1
:10560000E62000904FF080703C490861400008613E
:10561000BDF800003A4908604FF4000037490861BE
:10562000802008618000086100BF112003F0D6F9D6
:10563000002003F0D3F9342003F0D0F9002003F068
:10564000CDF9562003F0CAF9002003F0C7F97620FF
:1056500003F0C4F9002003F0C1F9772003F0BEF98C
:10566000002003F0BBF9662003F0B8F9002003F036
:10567000B5F9882003F0B2F9002003F0AFF99920C2
:1056800003F0ACF9002003F0A9F9BB2003F0A6F960
:10569000002003F0A3F9992003F0A0F9002003F003
:1056A0009DF9662003F09AF9002003F097F9552040
:1056B00003F094F9002003F091F9552003F08EF9DE
:1056C000002003F08BF9452003F088F9002003F057
:1056D00085F9432003F082F9002003F07FF944208C
:1056E00003F07CF9002003F079F9E72000904FF0F7
:1056F0008070024908614000086103E00010014029
:105700000C0C0140BDF80000FE4908604FF4000099
:10571000FD490861802008618000086100BF3220D7
:1057200003F05CF9002003F059F9552003F056F915
:10573000002003F053F9762003F050F9002003F025
:105740004DF9662003F04AF9002003F047F967207D
:1057500003F044F9002003F041F9672003F03EF91B
:10576000002003F03BF9872003F038F9002003F014
:1057700035F9992003F032F9002003F02FF9BB200E
:1057800003F02CF9002003F029F9992003F026F901
:10579000002003F023F9772003F020F9002003F024
:1057A0001DF9442003F01AF9002003F017F95620E0
:1057B00003F014F9002003F011F9232003F00EF98F
:1057C000002003F00BF9332003F008F9002003F068
:1057D00005F9452003F002F9002003F0FFF8E82066
:1057E00000904FF08070C849086140000861BDF822
:1057F0000000C44908604FF40000C34908618020DC
:1058000008618000086100BF002003F0E7F8002075
:1058100003F0E4F8992003F0E1F8002003F0DEF84B
:10582000872003F0DBF8002003F0D8F8882003F08D
:10583000D5F8002003F0D2F8772003F0CFF800204D
:1058400003F0CCF8662003F0C9F8002003F0C6F896
:10585000882003F0C3F8002003F0C0F8AA2003F06A
:10586000BDF8002003F0BAF8BB2003F0B7F8002021
:1058700003F0B4F8992003F0B1F8002003F0AEF87B
:10588000662003F0ABF8002003F0A8F8552003F0E1
:10589000A5F8002003F0A2F8552003F09FF800209F
:1058A00003F09CF8442003F099F8002003F096F8E8
:1058B000442003F093F8002003F090F8552003F003
:1058C0008DF8002003F08AF8E92000904FF08070F6
:1058D0008D49086140000861BDF8000089490860F1
:1058E0004FF4000088490861802008618000086149
:1058F00000BFAA2003F072F8002003F06FF8002028
:1059000003F06CF8002003F069F8002000904FF0DD
:1059100080707D49086140000861BDF80000794948
:1059200008604FF400007849086180200861800019
:10593000086100BFAA2003F051F8CF2000904FF07B
:1059400080707149086140000861BDF800006D4930
:1059500008604FF400006C490861802008618000F5
:10596000086100BF002003F039F8002003F036F88A
:10597000002003F033F8002003F030F8002003F09B
:105980002DF8002003F02AF8002003F027F800206B
:1059900003F024F8002003F021F8002003F01EF8A3
:1059A000002003F01BF8002003F018F8002003F09B
:1059B00015F8002003F012F8002003F00FF8002083
:1059C00003F00CF8002003F009F8F02000904FF0ED
:1059D00080704D49086140000861BDF800004949E8
:1059E00008604FF400004849086180200861800089
:1059F000086100BF002002F0F1FF502002F0EEFF2E
:105A0000002002F0EBFF002002F0E8FF002002F08F
:105A1000E5FFF32000904FF080703B4908614000A3
:105A20000861BDF80000374908604FF400003649AE
:105A30000861802008618000086100BF002002F03A
:105A4000CDFFF92000904FF080702F490861400091
:105A50000861BDF800002B4908604FF400002A4996
:105A60000861802008618000086100BF062002F004
:105A7000B5FF102002F0B2FF292002F0AFFF002096
:105A800002F0ACFF3A2000904FF080701E49086190
:105A900040000861BDF800001A4908604FF400009A
:105AA00019490861802008618000086100BF552005
:105AB00002F094FF112000904FF0807012490861AD
:105AC00040000861BDF800000E4908604FF4000076
:105AD0000D490861802008618000086100BF6420D2
